:100000000C9434000C9451000C9451000C94510049
:100010000C9451000C9451000C9451000C9451001C
:100020000C9451000C9451000C9451000C948D00D0
:100030000C9451000C9451000C9453000C945100FA
:100040000C9451000C9451000C9451000C945100EC
:100050000C9451000C9451000C9451000C945100DC
:100060000C9451000C94510011241FBECFEFD8E026
:10007000DEBFCDBF11E0A0E0B1E0E6EAF5E002C0EE
:1000800005900D92A034B107D9F721E0A0E4B1E0CA
:1000900001C01D92A934B207E1F70E94FA000C9446
:1000A000D1020C9400001F920F920FB60F921124F0
:1000B0008F939F93EF93FF93809148018F5F80937D
:1000C0004801E0914501F0914601908189131BC0E0
:1000D00010924801409A809140018F5F80934001C7
:1000E000E0914501F09146019281891311C010926F
:1000F0004001419AFF91EF919F918F910F900FBE18
:100100000F901F90189591818913E5CF4098E3CF08
:1001100093818913EFCF4198EDCF1F920F920FB6C5
:100120000F9211242F933F934F935F936F937F937D
:100130008F939F93AF93BF93EF93FF938091410170
:100140009091420101968C3221E0920781F19093C7
:1001500042018093410180910A0190910B01019726
:1001600090930B0180930A01892BD9F5429A88EB71
:100170009BE090930B0180930A010E945E0269E06C
:1001800070E00E948B018F5F80934701FF91EF9198
:10019000BF91AF919F918F917F916F915F914F919F
:1001A0003F912F910F900FBE0F901F9018951092B6
:1001B000420110924101E0914401F0E0E050FF4F14
:1001C0008081882349F02D9A809144018F5F8A3085
:1001D00028F480934401BFCF2D98F6CF10924401AC
:1001E000BACF809147018150809347018111CECFD2
:1001F0004298CCCF259A87B1836087B988B1836054
:1002000088B93A9A42986090340170903501809094
:10021000360190903701D0913801C091390140905A
:100220003A0150903B019BE0292E312C2A94211059
:1002300048C06092340170923501809236019092EC
:100240003701D0933801C093390140923A0150925E
:100250003B01832D6AE00E947F019093430124E0DB
:10026000929FC0011124845F9E4F9093460180931A
:10027000450184B5826084BD80916E008260809368
:100280006E008BE387BD85B5826085BD809181005E
:1002900088608093810080916F00826080936F00FE
:1002A00084ED94E19093890080938800809181008F
:1002B00081608093810089E390E30E9463027894D7
:1002C000FFCF8AE0A82EB12CC12CD12CE12CF12C2F
:1002D00000E010E09301A4016D2F7C2FC2010E9469
:1002E0009F01320E9301A4016D2F7C2FC2010E9449
:1002F000A10139014A01D62FC72F2C0197CF991B95
:1003000079E004C0991F961708F0961B881F7A950C
:10031000C9F78095089597FB072E16F4009407D02F
:1003200077FD09D00E94FE0107FC05D03EF49095B0
:1003300081959F4F0895709561957F4F08956894BA
:1003400001C0E8948F929F92CF93DF930E94AD01FA
:10035000DF91CF919F908F90089588249924F40184
:10036000E401B0E49F93AA279A158B049C04ED0541
:10037000FE05CF05D007A10798F4AD2FDC2FCF2FB6
:10038000FE2FE92D982C892E982F872F762F652FF9
:10039000542F432F322F2227B85031F7BF9127C057
:1003A0001B2EBF91BB27220F331F441F551F661FF3
:1003B000771F881F991F881C991CEE1FFF1FCC1FD9
:1003C000DD1FAA1FBB1F8A149B04EC05FD05CE058B
:1003D000DF05A007B10748F08A189B08EC09FD0962
:1003E000CE09DF09A00BB10B21601A94E1F62EF4BF
:1003F0009401AF01BE01CD01000C0895AA1BBB1BE7
:1004000051E107C0AA1FBB1FA617B70710F0A61B14
:10041000B70B881F991F5A95A9F780959095BC0135
:10042000CD0108958F929F92AF92BF92CF92DF92AB
:10043000EF92FF92CF93DF93EC01688179818A81FB
:100440009B81611571058105910521F464E279EDC7
:100450008BE597E02DE133EF41E050E00E946E0222
:1004600049015A019B01AC01A7EAB1E40E948D0247
:100470006B017C01ACEEB4EFA50194010E949B02DC
:10048000DC01CB018C0D9D1DAE1DBF1DB7FF03C050
:100490000197A109B04888839983AA83BB839F777A
:1004A000DF91CF91FF90EF90DF90CF90BF90AF9012
:1004B0009F908F9008950E94120208958CE391E01E
:1004C0000E9412020895B0E0A0E080933C01909356
:1004D0003D01A0933E01B0933F010895052E97FB87
:1004E0001EF400940E94850257FD07D00E94A002CE
:1004F00007FC03D04EF40C9485025095409530953E
:1005000021953F4F4F4F5F4F08959095809570957F
:1005100061957F4F8F4F9F4F08950E94C202A59F04
:10052000900DB49F900DA49F800D911D11240895EE
:10053000B7FF0C948D020E948D02821B930B0895CD
:10054000A1E21A2EAA1BBB1BFD010DC0AA1FBB1FD7
:10055000EE1FFF1FA217B307E407F50720F0A21B49
:10056000B30BE40BF50B661F771F881F991F1A94B6
:1005700069F760957095809590959B01AC01BD01E0
:10058000CF010895A29FB001B39FC001A39F700D3A
:10059000811D1124911DB29F700D811D1124911D8B
:0605A0000895F894FFCF5E
:1005A60001000001000000000000B80B35286B14A4
:1005B6007150F12D6137BF463D2F83196D4BE33DD9
:1005C600E996891D4721FBDCE32B43344F14D3AA5C
:1005D6009778530E8AD5BD66000000000100000022
:00000001FF
