:100000000C9434000C943E000C943E000C943E0082
:100010000C943E000C943E000C943E000C943E0068
:100020000C943E000C943E000C943E000C943E0058
:100030000C943E000C943E000C943E000C943E0048
:100040000C943E000C943E000C943E000C943E0038
:100050000C943E000C943E000C943E000C943E0028
:100060000C943E000C943E0011241FBECFEFD8E04C
:10007000DEBFCDBF0E94B3000C94EE000C940000D4
:100080009BB19F709BB99BB1807F892B8BB9299ABB
:10009000299A29980895CF93C82F28980E94400044
:1000A0008C2F8295807F0E9440008FE39FE1019713
:1000B000F1F700C00000CF910895811104C080E8DD
:1000C000860F0C944B0080ECFBCF8AB1806F8AB90D
:1000D00084B1836084B98FE59AEE0197F1F700C08F
:1000E000000080E30E9440008FE19EE40197F1F759
:1000F00000C0000080E30E9440008FED91E0019776
:10010000F1F700C0000080E30E94400080E20E94FE
:1001100040008FE39FE10197F1F700C0000088E203
:100120000E944B008FE00C944B00CF93C82F289A6D
:100130000E9440008C2F8295807F0E9440008FE3B8
:100140009FE10197F1F700C00000CF910895CF9390
:10015000DF93EC018991811103C0DF91CF91089564
:100160000E949500F7CF0E94650088B1846188B92C
:1001700081E00E944B0080E090E0C0E0349B1BC017
:10018000329B1DC0823379F491111CC0CF5FCA30FD
:1001900009F4C0E082E00E944B0080E38C0F0E94D3
:1001A000950090E080E08F5FEFE3FCE93197F1F795
:1001B00000C00000E3CF90E08233A9F7E7CF91E0E1
:1001C000823389F7C15008F4C9E082E00E944B00F5
:1001D00080E38C0F0E94950091E0E4CFF894FFCF6C
:00000001FF
