:100000000C9434000C9451000C9451000C94510049
:100010000C94C6000C9451000C9451000C945100A7
:100020000C9451000C9451000C9451000C9451000C
:100030000C9451000C9451000C9451000C945100FC
:100040000C9451000C9451000C9451000C945100EC
:100050000C9451000C9451000C9451000C945100DC
:100060000C9451000C94510011241FBECFEFD8E026
:10007000DEBFCDBF11E0A0E0B1E0EEE5FBE002C0E5
:1000800005900D92AC33B107D9F721E0ACE3B1E0B4
:1000900001C01D92A334B207E1F70E946A010C94DB
:1000A000AD050C9400009BB19F709BB99BB1807F04
:1000B000892B8BB9299A299A29980895CF93C82F0B
:1000C00028980E9453008C2F8295807F0E945300B5
:1000D0008FE39FE10197F1F700C00000CF910895F1
:1000E000811104C080E8860F0C945E0080ECFBCF89
:1000F0008AB1806F8AB984B1836084B98FE59AEE42
:100100000197F1F700C0000080E30E9453008FE1E7
:100110009EE40197F1F700C0000080E30E945300C5
:100120008FED91E00197F1F700C0000080E30E949D
:10013000530080E20E9453008FE39FE10197F1F7A3
:1001400000C0000088E20E945E008FE00C945E0018
:10015000CF93C82F289A0E9453008C2F8295807FBE
:100160000E9453008FE39FE10197F1F700C0000068
:10017000CF910895CF93DF93EC018991811103C052
:10018000DF91CF9108950E94A800F7CF1F920F92A0
:100190000FB60F9211248F939F9386B1982F927070
:1001A00090934201807280933F01809140018111C0
:1001B00010C080914201882321F081E080934101A9
:1001C00028C080913F01882369F182E0809341013A
:1001D00010C080914001813091F480913F018823CB
:1001E00011F083E0EBCF8091420181111BC010928E
:1001F000410180913C0190913D0101970FC0809198
:100200004001823049F580913F0181111FC0109259
:10021000410180913C0190913D01019690933D01F7
:1002200080933C019091410180914001981739F0F1
:1002300081E080933E0180914101809340019F9134
:100240008F910F900FBE0F901F90189580914201D3
:10025000882341F383E0BACF80914201811102C02B
:1002600082E0ACCF80913F018111DCCF81E0AECF45
:1002700005966AE070E00E945F026150710908F41F
:10028000089585E38A95F1F70000F7CF0F931F9348
:10029000CF93DF93EC019C0150E040E060E472E416
:1002A0008FE090E00E94730289019A0136952795AC
:1002B00017950795219728F4DF91CF911F910F9102
:1002C00008952C9AC8010E9438012C98C8010E94F8
:1002D0003801F0CFCF93DF93CDB7DEB7A8970FB635
:1002E000F894DEBF0FBECDBF0E94780087B18D7D30
:1002F00087B9249A88B1826288B92C9881E00E94DB
:100300005E0064E080E00E94700080E191E00E9465
:10031000BA0087E08F9392ED9F931F928F931F9265
:1003200082E08F9389E191E09F938F931F928EE1FA
:100330008F938E010F5F1F4F1F930F930E94C80270
:1003400063E081E00E947000C8010E94BA002FEFB4
:1003500033ED80E3215030408040E1F700C00000E1
:1003600081E00E945E0086B1982F927090934201C6
:10037000807280933F0180913F010FB6F894DEBFF9
:100380000FBECDBF811183C08091420181117FC01A
:10039000109240018091400180934101809168005A
:1003A00082608093680080916C00826280936C0010
:1003B000789460E080E00E94700086E291E00E9404
:1003C000BA0063E081E00E94700080913C0190914E
:1003D0003D019F938F9387E391E09F938F931F92AB
:1003E00085E08F938E010C5D1F4F1F930F930E942A
:1003F000C802C8010E94BA000FB6F894DEBF0FBE53
:10040000CDBF97E3E92E91E0F92E25E0D22E0550DD
:10041000110980913E018823E1F010923E0163E0D2
:1004200081E00E94700080913C0190913D019F937A
:100430008F93FF92EF921F92DF921F930F930E9470
:10044000C802C8010E94BA000FB6F894DEBF0FBE02
:10045000CDBF80913C0190913D0187709927892BF8
:10046000C1F6E0913C01F0913D01F7FF03C0F19529
:10047000E195F109F695E795F695E795EE70FF277A
:10048000E050FF4F808191810E944601C2CF809150
:100490003F01811108C080914201882321F081E051
:1004A0008093400177CF80913F01882331F0809184
:1004B0004201811102C082E0F3CF83E0F1CF97FBCC
:1004C000072E16F4009407D077FD09D00E949202FF
:1004D00007FC05D03EF4909581959F4F0895709547
:1004E00061957F4F0895052E97FB1EF400940E949E
:1004F0008A0257FD07D00E94A60207FC03D04EF4E3
:100500000C948A0250954095309521953F4F4F4F5E
:100510005F4F089590958095709561957F4F8F4FAF
:100520009F4F0895AA1BBB1B51E107C0AA1FBB1F09
:10053000A617B70710F0A61BB70B881F991F5A956F
:10054000A9F780959095BC01CD010895A1E21A2EDE
:10055000AA1BBB1BFD010DC0AA1FBB1FEE1FFF1F67
:10056000A217B307E407F50720F0A21BB30BE40BB7
:10057000F50B661F771F881F991F1A9469F76095FE
:100580007095809590959B01AC01BD01CF010895B8
:10059000AEE0B0E0EEECF2E00C9484050D891E892B
:1005A0008F89988D26E02C831A83098397FF02C0D8
:1005B00080E090E801979E838D83AE01455E5F4F9A
:1005C000698D7A8DCE0101960E94F8024D815E817F
:1005D00057FD0AC02F813885421753070CF49A0142
:1005E000020F131FF80110822E96E4E00C94A00570
:1005F000ABE0B0E0EEEFF2E00C9476057C013B015D
:100600008A01FC0117821682838181FFC8C1CE0155
:1006100001965C01F7019381F30193FD859193FFAE
:1006200081913F01882309F453C1853239F493FD48
:10063000859193FF81913F01853229F4B70190E0C4
:100640000E94E804E7CF912C212C312CFFE1F31517
:1006500038F08B3211F190F4803209F1833229F1B4
:1006600037FC3CC020ED280F2A3050F536FE20C064
:100670008AE0989E200D1124922E06C08D3291F0B2
:10068000803371F7689430F8F30193FD859193FFFF
:1006900081913F018111DACF21C0689431F86894CB
:1006A00032F8F2CF689433F8EFCF689434F8ECCF97
:1006B000EAE02E9E200D1124222E689435F8E4CF16
:1006C0008E3229F436FC04C1689436F8DDCF8C36BE
:1006D00019F4689437F8D8CF8836B1F2982F9F7DF7
:1006E00095549330E0F08336A1F18337C1F183351F
:1006F00009F063C02801F2E04F0E511CF801C080E0
:10070000D180692D70E036FC02C06FEF7FEFC6012B
:100710000E94D2044C01689437F882010AC00C5F31
:100720001F4FFFE3F98388248394912C6501E8949B
:1007300037F833FE2DC0522C8114910471F55520E9
:1007400009F468CFB70180E290E00E94E8045A946F
:10075000F6CFF801808189830E5F1F4FE4CF280117
:10076000F2E04F0E511CF801C080D180692D70E07D
:1007700036FC02C06FEF7FEFC6010E94DD044C0122
:100780008201D5CFB70180E290E00E94E8042A946C
:100790002814190409F0B0F7CECFF60137FC859183
:1007A00037FE81916F01B70190E00E94E80451107B
:1007B0005A94F1E08F1A9108BFCF843619F0893628
:1007C00009F077C0F80137FE6BC0608171818281CA
:1007D00093810C5F1F4FF32DFF763F2E97FF09C0CB
:1007E00090958095709561957F4F8F4F9F4F68943E
:1007F00037F82AE030E0A5010E941805C82ECA1873
:100800008C2C432C36FE0CC0E89440F8C91440F4FC
:1008100034FE05C032FC03C0F32DFE7E4F2E892C22
:1008200044FE95C0FE01EC0DF11D8081803309F07E
:1008300087C0242D297E422E842D8870582E43FC9B
:1008400095C040FE8FC09C2C821418F42C0C922C66
:10085000981844FE91C0B70180E390E00E94E8043C
:1008600042FE09C088E790E041FE02C088E590E0C2
:10087000B7010E94E804C91408F48AC0CA94D12CB4
:100880009FEFC91AD90ACA0CDB1CF60182916F01CD
:10089000B70190E00E94E804AC14BD04B1F74FCF5B
:1008A00060817181072E000C880B990B0E5F1F4F22
:1008B00092CFD32CE894D4F82AE030E0853739F190
:1008C000232D297FD22E8F3601F148F48835A9F0E7
:1008D000F701868197812B96E2E10C94920580378F
:1008E00049F08837A9F7D4FE02C06894D2F820E115
:1008F00030E00DC06894D4F8F6CF34FE03C0822FE8
:100900008660D82E20E132E002C028E030E0F80115
:10091000D7FE0FC060817181828193810C5F1F4F70
:10092000A5010E941805C82ECA183D2CE89437F876
:1009300067CF6081718190E080E00E5F1F4FF0CF44
:1009400042FC02C0839478CF8394839475CF842D26
:10095000867809F471CFF6CFB70180E290E00E946B
:10096000E80483948214C0F3512C73CF522C58188E
:10097000821408F46ECFF8CF842D867809F47BCFEB
:100980008BE241FE80E247FC8DE2B70190E071CF3F
:10099000B70180E390E00E94E8049A946CCF8FEF57
:1009A0009FEF99CFFC010590615070400110D8F77E
:1009B000809590958E0F9F1F0895FC0161507040A7
:1009C00001900110D8F7809590958E0F9F1F089584
:1009D0000F931F93CF93DF93182F092FEB018B8178
:1009E00081FD09C01FEF0FEF812F902FDF91CF9175
:1009F0001F910F91089582FF14C02E813F818C8139
:100A00009D81281739073CF4E881F981CF010196CF
:100A10009983888310838E819F8101969F838E8323
:100A2000E3CFE885F985812F0995892BA1F3DACFEA
:100A3000FA01AA27283051F1203181F1E8946F930F
:100A40006E7F6E5F7F4F8F4F9F4FAF4FB1E03ED0B5
:100A5000B4E03CD0670F781F891F9A1FA11D680F53
:100A6000791F8A1F911DA11D6A0F711D811D911D86
:100A7000A11D20D009F468943F912AE0269F1124FB
:100A80003019305D3193DEF6CF010895462F47705F
:100A9000405D4193B3E00FD0C9F7F6CF462F4F70BA
:100AA000405D4A3318F0495D31FD4052419302D018
:100AB000A9F7EACFB4E0A6959795879577956795BE
:100AC000BA95C9F700976105710508959B01AC01BE
:100AD0000A2E06945795479537952795BA95C9F7E5
:100AE000620F731F841F951FA01D08952F923F92C0
:100AF0004F925F926F927F928F929F92AF92BF922E
:100B0000CF92DF92EF92FF920F931F93CF93DF93D9
:100B1000CDB7DEB7CA1BDB0B0FB6F894DEBF0FBE36
:100B2000CDBF09942A88398848885F846E847D8483
:100B30008C849B84AA84B984C884DF80EE80FD8085
:100B40000C811B81AA81B981CE0FD11D0FB6F894FB
:0E0B5000DEBF0FBECDBFED010895F894FFCFBC
:100B5E00060126014A015D018801B801EE010B0272
:100B6E005061756C204B696D00253032642F253035
:100B7E0032642F2564004545313039204C616220A6
:0C0B8E003720506F6C6C00253034640080
:00000001FF
