:100000000C9434000C943E000C943E000C943E0082
:100010000C943E000C943E000C943E000C943E0068
:100020000C943E000C943E000C943E000C943E0058
:100030000C943E000C943E000C943E000C943E0048
:100040000C943E000C943E000C943E000C943E0038
:100050000C943E000C943E000C943E000C943E0028
:100060000C943E000C943E0011241FBECFEFD8E04C
:10007000DEBFCDBF0E9481000C94B0000C94000044
:10008000811102C05A9808955A9A089581E00E94F9
:1000900040002FEF84E39CE0215080409040E1F746
:1000A00000C000005A982FEF84E39CE0215080406C
:1000B0009040E1F700C00000089581E00E944000F8
:1000C0002FEF8EE994E2215080409040E1F700C08C
:1000D00000005A982FEF8EE994E221508040904022
:1000E000E1F700C00000089523B130E0A90102C08B
:1000F000559547958A95E2F7CA018095909581704C
:100100000895529A84B1877C84B95A9885B18863DE
:1001100085B983E00E947400182F84E00E94740067
:10012000D82F85E00E947400C82F113031F40E944E
:1001300046000E9446000E945D00D13031F40E94CA
:1001400046000E9446000E944600C13011F70E94FE
:100150005D000E9446000E945D000E944600D9CFCB
:04016000F894FFCF41
:00000001FF
