:100000000C9434000C9451000C9451000C94510049
:100010000C9451000C9451000C9451000C9451001C
:100020000C9451000C9451000C9451000C9453000A
:100030000C9451000C9451000C9451000C945100FC
:100040000C9451000C9451000C9451000C945100EC
:100050000C9451000C9451000C9451000C945100DC
:100060000C9451000C94510011241FBECFEFD8E026
:10007000DEBFCDBF11E0A0E0B1E0E4E4FAE002C0F1
:1000800005900D92A432B107D9F721E0A4E2B1E0C6
:1000900001C01D92A732B207E1F70E9436010C940D
:1000A00020050C9400001F920F920FB60F9211249E
:1000B0008F939F938091240190912501892B49F181
:1000C00080910201853381F480910101893361F4CB
:1000D00080910001893341F480E380930201809391
:1000E00001018093000112C080910001893309F55C
:1000F000809101018933A1F480E380930101809311
:100100000001809102018F5F8093020181E0809362
:1001100026019F918F910F900FBE0F901F90189501
:1001200080E380930001809101018F5F8093010142
:10013000EDCF809100018F5FD4CF9BB19F709BB9B1
:100140009BB1807F892B8BB9299A299A2998089588
:10015000CF93C82F28980E949D008C2F8295807F76
:100160000E949D008FE39FE10197F1F700C000001E
:10017000CF910895811104C080E8860F0C94A800E7
:1001800080ECFBCF8AB1806F8AB984B1836084B977
:100190008FE59AEE0197F1F700C0000080E30E941E
:1001A0009D008FE19EE40197F1F700C0000080E31D
:1001B0000E949D008FED91E00197F1F700C00000D3
:1001C00080E30E949D0080E20E949D008FE39FE1FA
:1001D0000197F1F700C0000088E20E94A8008FE0BC
:1001E0000C94A800CF93C82F289A0E949D008C2FB2
:1001F0008295807F0E949D008FE39FE10197F1F738
:1002000000C00000CF910895CF93DF93EC01899156
:10021000811103C0DF91CF9108950E94F200F7CFC2
:10022000ACE7B0E08C911C92EAE7F0E080811082AC
:100230008C9180668C9380818768808308959091EB
:100240007C00907F90937C0090917C008F70892B34
:1002500080937C0080917A00806480937A00809102
:100260007A0086FDFCCF809179000895CF93DF93CB
:10027000CDB7DEB7A3970FB6F894DEBF0FBECDBFE4
:100280000E94C2000E94100181E00E94A80064E068
:1002900080E00E94BA0083E091E00E940401809116
:1002A000810088608093810080916F0082608093DC
:1002B0006F008AE698E1909389008093880080918E
:1002C0008100846080938100809181008C7F809385
:1002D0008100789487E08F9392ED9F931F928F9384
:1002E0001F9282E08F938CE091E09F938F931F92F7
:1002F0008EE18F938E010F5F1F4F1F930F930E940C
:100300003B0263E081E00E94BA00C8010E94040140
:100310002FEF83ED90E3215080409040E1F700C043
:10032000000081E00E94A80060E080E00E94BA0026
:1003300089E191E00E9404010FB6F894DEBF0FBE80
:10034000CDBF01E010E082E0C82ED12C90E3F92E61
:100350002EE2E22E80E00E941F0192ED980F9B306A
:1003600008F04DC08E528B30A0F09FEF21EE84E05C
:10037000915020408040E1F700C0000080912401AE
:1003800090912501892B49F41093250100932401B4
:100390000FC080E00E941F01E5CF80912401909161
:1003A0002501019709F05FC01092250110922401E8
:1003B00080912601882371F280912401909125017A
:1003C000019741F610922601809124019091250118
:1003D000029709F4BFCF60E080E00E94BA008091EC
:1003E00002018F8F8091010188A3E9A28091000111
:1003F0008AA31BA2CE014F960E940401ABCF9FE9B6
:10040000980F9B30A8F681568B30F0F09FEF21EECD
:1004100084E0915020408040E1F700C000008091CE
:10042000240190912501892B99F460E080E00E94DD
:10043000BA008EE191E00E940401F0920201F09274
:100440000101F0920001B4CF80E00E941F01DBCFD8
:100450008091240190912501019729F4D0922501E2
:10046000C0922401A5CF809124019091250102978B
:1004700009F09ECF89CFAEE0B0E0E1E4F2E00C9469
:10048000F7040D891E898F89988D26E02C831A83A5
:10049000098397FF02C080E090E801979E838D83D7
:1004A000AE01455E5F4F698D7A8DCE0101960E9447
:1004B0006B024D815E8157FD0AC02F81388542173E
:1004C00053070CF49A01020F131FF80110822E96A5
:1004D000E4E00C941305ABE0B0E0E1E7F2E00C944B
:1004E000E9047C013B018A01FC01178216828381A9
:1004F00081FFC8C1CE0101965C01F7019381F30130
:1005000093FD859193FF81913F01882309F453C1A5
:10051000853239F493FD859193FF81913F018532B6
:1005200029F4B70190E00E945B04E7CF912C212CC5
:10053000312CFFE1F31538F08B3211F190F4803259
:1005400009F1833229F137FC3CC020ED280F2A3015
:1005500050F536FE20C08AE0989E200D1124922E80
:1005600006C08D3291F0803371F7689430F8F30152
:1005700093FD859193FF81913F018111DACF21C0D5
:10058000689431F8689432F8F2CF689433F8EFCF7A
:10059000689434F8ECCFEAE02E9E200D1124222E30
:1005A000689435F8E4CF8E3229F436FC04C168949F
:1005B00036F8DDCF8C3619F4689437F8D8CF883602
:1005C000B1F2982F9F7D95549330E0F08336A1F1DE
:1005D0008337C1F1833509F063C02801F2E04F0E83
:1005E000511CF801C080D180692D70E036FC02C03A
:1005F0006FEF7FEFC6010E9445044C01689437F805
:1006000082010AC00C5F1F4FFFE3F98388248394A3
:10061000912C6501E89437F833FE2DC0522C8114DB
:10062000910471F5552009F468CFB70180E290E09C
:100630000E945B045A94F6CFF801808189830E5F93
:100640001F4FE4CF2801F2E04F0E511CF801C0808B
:10065000D180692D70E036FC02C06FEF7FEFC601DC
:100660000E9450044C018201D5CFB70180E290E096
:100670000E945B042A942814190409F0B0F7CECF25
:10068000F60137FC859137FE81916F01B70190E04B
:100690000E945B0451105A94F1E08F1A9108BFCF69
:1006A000843619F0893609F077C0F80137FE6BC03F
:1006B00060817181828193810C5F1F4FF32DFF76E2
:1006C0003F2E97FF09C090958095709561957F4F5B
:1006D0008F4F9F4F689437F82AE030E0A5010E94C1
:1006E0008B04C82ECA188C2C432C36FE0CC0E89400
:1006F00040F8C91440F434FE05C032FC03C0F32DA9
:10070000FE7E4F2E892C44FE95C0FE01EC0DF11D9E
:100710008081803309F087C0242D297E422E842DCC
:100720008870582E43FC95C040FE8FC09C2C8214CC
:1007300018F42C0C922C981844FE91C0B70180E359
:1007400090E00E945B0442FE09C088E790E041FE11
:1007500002C088E590E0B7010E945B04C91408F468
:100760008AC0CA94D12C9FEFC91AD90ACA0CDB1CC3
:10077000F60182916F01B70190E00E945B04AC1416
:10078000BD04B1F74FCF60817181072E000C880B3B
:10079000990B0E5F1F4F92CFD32CE894D4F82AE028
:1007A00030E0853739F1232D297FD22E8F3601F1A4
:1007B00048F48835A9F0F701868197812B96E2E10C
:1007C0000C940505803749F08837A9F7D4FE02C09C
:1007D0006894D2F820E130E00DC06894D4F8F6CFE8
:1007E00034FE03C0822F8660D82E20E132E002C0A2
:1007F00028E030E0F801D7FE0FC06081718182816E
:1008000093810C5F1F4FA5010E948B04C82ECA184C
:100810003D2CE89437F867CF6081718190E080E0EB
:100820000E5F1F4FF0CF42FC02C0839478CF8394B9
:10083000839475CF842D867809F471CFF6CFB701F4
:1008400080E290E00E945B0483948214C0F3512CF8
:1008500073CF522C5818821408F46ECFF8CF842D21
:10086000867809F47BCF8BE241FE80E247FC8DE283
:10087000B70190E071CFB70180E390E00E945B0484
:100880009A946CCF8FEF9FEF99CFFC010590615048
:1008900070400110D8F7809590958E0F9F1F089596
:1008A000FC016150704001900110D8F7809590953F
:1008B0008E0F9F1F08950F931F93CF93DF93182FD1
:1008C000092FEB018B8181FD09C01FEF0FEF812FF5
:1008D000902FDF91CF911F910F91089582FF14C047
:1008E0002E813F818C819D81281739073CF4E88156
:1008F000F981CF0101969983888310838E819F812E
:1009000001969F838E83E3CFE885F985812F099532
:10091000892BA1F3DACFFA01AA27283051F120312F
:1009200081F1E8946F936E7F6E5F7F4F8F4F9F4F83
:10093000AF4FB1E03ED0B4E03CD0670F781F891FC5
:100940009A1FA11D680F791F8A1F911DA11D6A0F93
:10095000711D811D911DA11D20D009F468943F9146
:100960002AE0269F11243019305D3193DEF6CF0145
:100970000895462F4770405D4193B3E00FD0C9F70B
:10098000F6CF462F4F70405D4A3318F0495D31FD78
:100990004052419302D0A9F7EACFB4E0A6959795CB
:1009A000879577956795BA95C9F7009761057105A1
:1009B00008959B01AC010A2E0694579547953795EB
:1009C0002795BA95C9F7620F731F841F951FA01D45
:1009D00008952F923F924F925F926F927F928F92E3
:1009E0009F92AF92BF92CF92DF92EF92FF920F93BE
:1009F0001F93CF93DF93CDB7DEB7CA1BDB0B0FB6C8
:100A0000F894DEBF0FBECDBF09942A883988488884
:100A10005F846E847D848C849B84AA84B984C8841A
:100A2000DF80EE80FD800C811B81AA81B981CE0F11
:100A3000D11D0FB6F894DEBF0FBECDBFED010895F6
:040A4000F894FFCF58
:100A44003030305061756C204B696D002530326454
:100A54002F253032642F256400302E3030003030A2
:040A64002E30000030
:00000001FF
