:100000000C9434000C9449000C9449000C94490061
:100010000C9449000C9449000C9449000C9449003C
:100020000C9449000C9449000C9449000C9449002C
:100030000C9449000C9449000C9449000C9449001C
:100040000C9449000C9449000C9449000C9449000C
:100050000C9449000C9449000C9449000C944900FC
:100060000C9449000C94490011241FBECFEFD8E036
:10007000DEBFCDBF11E0A0E0B1E0E2E0FAE002C0F7
:1000800005900D92A633B107D9F70E94BE000C94DB
:10009000FF040C9400009BB19F709BB99BB1807FC3
:1000A000892B8BB9299A299A29980895CF93C82F1B
:1000B00028980E944B008C2F8295807F0E944B00D5
:1000C0008FE39FE10197F1F700C00000CF91089501
:1000D000811104C080E8860F0C94560080ECFBCFA1
:1000E0008AB1806F8AB984B1836084B98FE59AEE52
:1000F0000197F1F700C0000080E30E944B008FE100
:100100009EE40197F1F700C0000080E30E944B00DD
:100110008FED91E00197F1F700C0000080E30E94AD
:100120004B0080E20E944B008FE39FE10197F1F7C3
:1001300000C0000088E20E9456008FE00C94560038
:10014000CF93C82F289A0E944B008C2F8295807FD6
:100150000E944B008FE39FE10197F1F700C0000080
:10016000CF910895CF93DF93EC018991811103C062
:10017000DF91CF9108950E94A000F7CFCF93DF9336
:10018000CDB7DEB7AE970FB6F894DEBF0FBECDBFCA
:100190000E94700081E00E94560088B18E6188B98B
:1001A00087B1817E87B980E091E00E94B20087E04C
:1001B0008F9392ED9F931F928F931F9282E08F9364
:1001C00089E091E09F938F931F928EE18F938E0130
:1001D0000F5F1F4F1F930F930E941A0263E081E08D
:1001E0000E946800C8010E94B2002FEF83ED90E3E7
:1001F000215080409040E1F700C0000081E00E9463
:1002000056000FB6F894DEBF0FBECDBF312CBAE05A
:10021000AB2EB12C10E000E0F12CE12C87E0282E71
:100220006E0197E2C90ED11C94E2492E91E0592E3D
:100230002CE2622E21E0722E4E012FE1820E911CE3
:1002400068E081E0319948C00E94680086E191E051
:100250000E94B200EE24E394F12C69E081E032992F
:1002600042C00E94680086E191E00E94B200EE2444
:10027000E394F12C6AE081E033993CC00E9468006D
:100280008AE191E00E94B20001E010E06BE081E0C1
:10029000349937C00E9468008AE191E00E94B20060
:1002A00001E010E08AE0A816B10409F09FC03320F5
:1002B00009F4A9C091E039122BC0EA94EF2809F49F
:1002C000ABC0780101301105B9F594E0392EF12C5D
:1002D000E12C10E000E03BC00E94680088E191E062
:1002E0000E94B200BACF0E94680088E191E00E94AB
:1002F000B200C0CF0E94680088E191E00E94B20085
:10030000C5CF0E94680088E191E00E94B200CACF88
:1003100082E0381207C078010130110561F485E0F0
:10032000382ED5CF94E039120AC021E0E216F1044C
:1003300009F47BC08701312C22E52EA715C083E08C
:10034000381609F463C095E0391609F45FC08CEFE4
:10035000830D823038F427E42EA7E2E5AE2E22E5A5
:10036000B22E06C082E58EA762E5A62E77E4B72EF0
:1003700060E080E00E9468001F92BF928CE191E0F3
:100380009F938F931F922F92DF92CF920E941A0217
:10039000C6010E94B20060E081E00E9468001F92E6
:1003A000AF925F924F921F922F92DF92CF920E9454
:1003B0001A02C6010E94B20068E080E00E94680054
:1003C0001F928EA58F937F926F921F9288E08F93DA
:1003D0009F928F920E941A02C4010E94B2000FB62F
:1003E000F894DEBF0FBECDBFB12CA12C9FEF23EC44
:1003F00089E0915020408040E1F700C000009FEF6D
:10040000A91AB90A1DCF3324339496CF312C10E0AA
:1004100000E0F12CE12C90CF52E0352EF12CE12CB4
:1004200082E58EA737E4A32E9ACF43E0342E10E066
:1004300000E0F4CFAEE0B0E0E0E2F2E00C94D604ED
:100440000D891E898F89988D26E02C831A83098354
:1004500097FF02C080E090E801979E838D83AE01F4
:10046000455E5F4F698D7A8DCE0101960E944A02EA
:100470004D815E8157FD0AC02F8138854217530791
:100480000CF49A01020F131FF80110822E96E4E07B
:100490000C94F204ABE0B0E0E0E5F2E00C94C804A8
:1004A0007C013B018A01FC0117821682838181FF56
:1004B000C8C1CE0101965C01F7019381F30193FD60
:1004C000859193FF81913F01882309F453C18532BF
:1004D00039F493FD859193FF81913F01853229F491
:1004E000B70190E00E943A04E7CF912C212C312CE7
:1004F000FFE1F31538F08B3211F190F4803209F1FD
:10050000833229F137FC3CC020ED280F2A3050F50A
:1005100036FE20C08AE0989E200D1124922E06C03F
:100520008D3291F0803371F7689430F8F30193FDC8
:10053000859193FF81913F018111DACF21C06894A9
:1005400031F8689432F8F2CF689433F8EFCF6894BA
:1005500034F8ECCFEAE02E9E200D1124222E689470
:1005600035F8E4CF8E3229F436FC04C1689436F8AD
:10057000DDCF8C3619F4689437F8D8CF8836B1F2CD
:10058000982F9F7D95549330E0F08336A1F1833707
:10059000C1F1833509F063C02801F2E04F0E511C10
:1005A000F801C080D180692D70E036FC02C06FEF89
:1005B0007FEFC6010E9424044C01689437F8820141
:1005C0000AC00C5F1F4FFFE3F98388248394912CAA
:1005D0006501E89437F833FE2DC0522C8114910444
:1005E00071F5552009F468CFB70180E290E00E94D0
:1005F0003A045A94F6CFF801808189830E5F1F4F29
:10060000E4CF2801F2E04F0E511CF801C080D180E8
:10061000692D70E036FC02C06FEF7FEFC6010E94CB
:100620002F044C018201D5CFB70180E290E00E94F7
:100630003A042A942814190409F0B0F7CECFF60131
:1006400037FC859137FE81916F01B70190E00E94E0
:100650003A0451105A94F1E08F1A9108BFCF8436B2
:1006600019F0893609F077C0F80137FE6BC0608158
:100670007181828193810C5F1F4FF32DFF763F2E96
:1006800097FF09C090958095709561957F4F8F4F2A
:100690009F4F689437F82AE030E0A5010E946A0471
:1006A000C82ECA188C2C432C36FE0CC0E89440F897
:1006B000C91440F434FE05C032FC03C0F32DFE7EA5
:1006C0004F2E892C44FE95C0FE01EC0DF11D80815A
:1006D000803309F087C0242D297E422E842D887016
:1006E000582E43FC95C040FE8FC09C2C821418F4F9
:1006F0002C0C922C981844FE91C0B70180E390E036
:100700000E943A0442FE09C088E790E041FE02C020
:1007100088E590E0B7010E943A04C91408F48AC041
:10072000CA94D12C9FEFC91AD90ACA0CDB1CF60156
:1007300082916F01B70190E00E943A04AC14BD04AD
:10074000B1F74FCF60817181072E000C880B990B98
:100750000E5F1F4F92CFD32CE894D4F82AE030E0FC
:10076000853739F1232D297FD22E8F3601F148F4B8
:100770008835A9F0F701868197812B96E2E10C94E8
:10078000E404803749F08837A9F7D4FE02C06894A2
:10079000D2F820E130E00DC06894D4F8F6CF34FEF2
:1007A00003C0822F8660D82E20E132E002C028E00C
:1007B00030E0F801D7FE0FC06081718182819381A2
:1007C0000C5F1F4FA5010E946A04C82ECA183D2C59
:1007D000E89437F867CF6081718190E080E00E5F28
:1007E0001F4FF0CF42FC02C0839478CF8394839450
:1007F00075CF842D867809F471CFF6CFB70180E2EA
:1008000090E00E943A0483948214C0F3512C73CF79
:10081000522C5818821408F46ECFF8CF842D8678A5
:1008200009F47BCF8BE241FE80E247FC8DE2B70109
:1008300090E071CFB70180E390E00E943A049A946F
:100840006CCF8FEF9FEF99CFFC0105906150704006
:100850000110D8F7809590958E0F9F1F0895FC0189
:100860006150704001900110D8F7809590958E0FDF
:100870009F1F08950F931F93CF93DF93182F092F76
:10088000EB018B8181FD09C01FEF0FEF812F902FAE
:10089000DF91CF911F910F91089582FF14C02E8197
:1008A0003F818C819D81281739073CF4E881F981CB
:1008B000CF0101969983888310838E819F81019651
:1008C0009F838E83E3CFE885F985812F0995892B56
:1008D000A1F3DACFFA01AA27283051F1203181F1B2
:1008E000E8946F936E7F6E5F7F4F8F4F9F4FAF4F38
:1008F000B1E03ED0B4E03CD0670F781F891F9A1F4B
:10090000A11D680F791F8A1F911DA11D6A0F711DFE
:10091000811D911DA11D20D009F468943F912AE00A
:10092000269F11243019305D3193DEF6CF010895F2
:10093000462F4770405D4193B3E00FD0C9F7F6CF23
:10094000462F4F70405D4A3318F0495D31FD4052EB
:10095000419302D0A9F7EACFB4E0A6959795879581
:1009600077956795BA95C9F7009761057105089560
:100970009B01AC010A2E069457954795379527950C
:10098000BA95C9F7620F731F841F951FA01D0895A4
:100990002F923F924F925F926F927F928F929F928F
:1009A000AF92BF92CF92DF92EF92FF920F931F937D
:1009B000CF93DF93CDB7DEB7CA1BDB0B0FB6F8942E
:1009C000DEBF0FBECDBF09942A88398848885F846E
:1009D0006E847D848C849B84AA84B984C884DF80DF
:1009E000EE80FD800C811B81AA81B981CE0FD11DC3
:1009F0000FB6F894DEBF0FBECDBFED010895F89499
:020A0000FFCF26
:100A02005061756C204B696D00253032642F2530A2
:100A120032642F2564004C00200053004D41494EA2
:100A22003D2563004C4546543D256300534D414CE2
:060A32004C3D25630000AD
:00000001FF
