:100000000C9434000C9451000C9451000C94510049
:100010000C9451000C9451000C9451000C9451001C
:100020000C9451000C9451000C9451000C9451000C
:100030000C9451000C9451000C9451000C945100FC
:100040000C9451000C9451000C9475000C945100C8
:100050000C9451000C9451000C9451000C945100DC
:100060000C9451000C94510011241FBECFEFD8E026
:10007000DEBFCDBF11E0A0E0B1E0E2E8FAE002C0EF
:1000800005900D92AE3FB107D9F722E0AEEFB1E097
:1000900001C01D92A231B207E1F70E9441010C9408
:1000A0003F050C9400009093C5008093C40086E047
:1000B0008093C200E1ECF0E0808188618083539AF4
:1000C0005B9808959091C00095FFFCCF8093C60087
:1000D0000895CF93DF93EC018991811103C0DF91E3
:1000E000CF9108950E946200F7CF1F920F920FB632
:1000F0000F9211248F939F93EF93FF938091C600EB
:10010000E091FE01F091FF01EF5FFD4F8083809150
:10011000FE019091FF0101969093FF018093FE01F3
:100120008091FE019091FF01409749F41092FF01E8
:100130001092FE011092110281E080930002FF9163
:10014000EF919F918F910F900FBE0F901F90189578
:100150009BB19F709BB99BB1807F892B8BB9299AEA
:10016000299A29980895CF93C82F28980E94A8000B
:100170008C2F8295807F0E94A8008FE39FE10197DA
:10018000F1F700C00000CF910895811104C080E80C
:10019000860F0C94B30080ECFBCF8AB1806F8AB9D4
:1001A00084B1836084B98FE59AEE0197F1F700C0BE
:1001B000000080E30E94A8008FE19EE40197F1F720
:1001C00000C0000080E30E94A8008FED91E001973D
:1001D000F1F700C0000080E30E94A80080E20E94C6
:1001E000A8008FE39FE10197F1F700C0000088E2CB
:1001F0000E94B3008FE00C94B300CF93C82F289ACD
:100200000E94A8008C2F8295807F0E94A8008FE317
:100210009FE10197F1F700C00000CF910895CF93BF
:10022000DF93EC018991811103C0DF91CF91089593
:100230000E94FD00F7CFACE7B0E08C911C92EAE79A
:10024000F0E0808110828C9180668C938081876839
:100250008083089590917C00907F90937C00909192
:100260007C008F70892B80937C0080917A00806461
:1002700080937A0080917A0086FDFCCF809179008E
:100280000895CF93DF93CDB7DEB7AF970FB6F8944D
:10029000DEBF0FBECDBF0E94CD000E941B0187E6CE
:1002A00090E00E9453008091C10080688093C1005B
:1002B000789481E00E94B30064E080E00E94C50071
:1002C00088E191E00E940F0187E08F9392ED9F9368
:1002D0001F928F931F9282E08F9381E291E09F9310
:1002E0008F931F928EE18F938E010F5F1F4F1F938D
:1002F0000F930E945A0263E081E00E94C500C8018A
:100300000E940F012FEF83ED90E321508040904039
:10031000E1F700C0000081E00E94B3001FA660E08A
:1003200080E00E94C500809101018F9380910001BF
:100330008F938EE291E09F938F931F9281E18F9331
:10034000025E1F4F1F930F930E945A02C8010E9422
:100350000F010FB6F894DEBF0FBECDBFB12C2CE05D
:10036000922E3EE2E32E31E0F32E41E1A42E51E045
:10037000C52E52E0D52E80E00E942A0192ED980F02
:100380009B3008F052C08E528B3008F44AC09FEF69
:1003900021EE84E0915020408040E1F700C0000051
:1003A000B39460E080E00E94C5008B2D692D0E940F
:1003B0004E02E92FF0E0EE0FFF1FE050FF4F81816A
:1003C0008F9380818F93FF92EF921F92AF921F9332
:1003D0000F930E945A02C8010E940F010FB6F894B1
:1003E000DEBF0FBECDBF80910002813021F610929A
:1003F000000260E00E94C50010921102DF92CF92CD
:10040000FF92EF921F92AF921F930F930E945A0296
:10041000C8010E940F010FB6F894DEBF0FBECDBF1A
:10042000AACF80E00E942A01AECF9FE9980F9B30AF
:1004300090F481568B3058F09FEF21EE84E091507C
:1004400020408040E1F700C00000BA94AACF80E0CD
:100450000E942A01EECF99E3980F9F3020F6875C27
:100460008F30C0F09FEF21EE84E09150204080401B
:10047000E1F700C000008B2D692D0E944E02E92F8C
:10048000F0E0EE0FFF1FE050FF4F808191810E944E
:100490006900A9CF80E00E942A01E1CF991B79E091
:1004A00004C0991F961708F0961B881F7A95C9F704
:1004B00080950895AEE0B0E0E0E6F2E00C94160519
:1004C0000D891E898F89988D26E02C831A830983D4
:1004D00097FF02C080E090E801979E838D83AE0174
:1004E000455E5F4F698D7A8DCE0101960E948A022A
:1004F0004D815E8157FD0AC02F8138854217530711
:100500000CF49A01020F131FF80110822E96E4E0FA
:100510000C943205ABE0B0E0E0E9F2E00C940805A1
:100520007C013B018A01FC0117821682838181FFD5
:10053000C8C1CE0101965C01F7019381F30193FDDF
:10054000859193FF81913F01882309F453C185323E
:1005500039F493FD859193FF81913F01853229F410
:10056000B70190E00E947A04E7CF912C212C312C26
:10057000FFE1F31538F08B3211F190F4803209F17C
:10058000833229F137FC3CC020ED280F2A3050F58A
:1005900036FE20C08AE0989E200D1124922E06C0BF
:1005A0008D3291F0803371F7689430F8F30193FD48
:1005B000859193FF81913F018111DACF21C0689429
:1005C00031F8689432F8F2CF689433F8EFCF68943A
:1005D00034F8ECCFEAE02E9E200D1124222E6894F0
:1005E00035F8E4CF8E3229F436FC04C1689436F82D
:1005F000DDCF8C3619F4689437F8D8CF8836B1F24D
:10060000982F9F7D95549330E0F08336A1F1833786
:10061000C1F1833509F063C02801F2E04F0E511C8F
:10062000F801C080D180692D70E036FC02C06FEF08
:100630007FEFC6010E9464044C01689437F8820180
:100640000AC00C5F1F4FFFE3F98388248394912C29
:100650006501E89437F833FE2DC0522C81149104C3
:1006600071F5552009F468CFB70180E290E00E944F
:100670007A045A94F6CFF801808189830E5F1F4F68
:10068000E4CF2801F2E04F0E511CF801C080D18068
:10069000692D70E036FC02C06FEF7FEFC6010E944B
:1006A0006F044C018201D5CFB70180E290E00E9437
:1006B0007A042A942814190409F0B0F7CECFF60171
:1006C00037FC859137FE81916F01B70190E00E9460
:1006D0007A0451105A94F1E08F1A9108BFCF8436F2
:1006E00019F0893609F077C0F80137FE6BC06081D8
:1006F0007181828193810C5F1F4FF32DFF763F2E16
:1007000097FF09C090958095709561957F4F8F4FA9
:100710009F4F689437F82AE030E0A5010E94AA04B0
:10072000C82ECA188C2C432C36FE0CC0E89440F816
:10073000C91440F434FE05C032FC03C0F32DFE7E24
:100740004F2E892C44FE95C0FE01EC0DF11D8081D9
:10075000803309F087C0242D297E422E842D887095
:10076000582E43FC95C040FE8FC09C2C821418F478
:100770002C0C922C981844FE91C0B70180E390E0B5
:100780000E947A0442FE09C088E790E041FE02C060
:1007900088E590E0B7010E947A04C91408F48AC081
:1007A000CA94D12C9FEFC91AD90ACA0CDB1CF601D6
:1007B00082916F01B70190E00E947A04AC14BD04ED
:1007C000B1F74FCF60817181072E000C880B990B18
:1007D0000E5F1F4F92CFD32CE894D4F82AE030E07C
:1007E000853739F1232D297FD22E8F3601F148F438
:1007F0008835A9F0F701868197812B96E2E10C9468
:100800002405803749F08837A9F7D4FE02C06894E0
:10081000D2F820E130E00DC06894D4F8F6CF34FE71
:1008200003C0822F8660D82E20E132E002C028E08B
:1008300030E0F801D7FE0FC0608171818281938121
:100840000C5F1F4FA5010E94AA04C82ECA183D2C98
:10085000E89437F867CF6081718190E080E00E5FA7
:100860001F4FF0CF42FC02C0839478CF83948394CF
:1008700075CF842D867809F471CFF6CFB70180E269
:1008800090E00E947A0483948214C0F3512C73CFB9
:10089000522C5818821408F46ECFF8CF842D867825
:1008A00009F47BCF8BE241FE80E247FC8DE2B70189
:1008B00090E071CFB70180E390E00E947A049A94AF
:1008C0006CCF8FEF9FEF99CFFC0105906150704086
:1008D0000110D8F7809590958E0F9F1F0895FC0109
:1008E0006150704001900110D8F7809590958E0F5F
:1008F0009F1F08950F931F93CF93DF93182F092FF6
:10090000EB018B8181FD09C01FEF0FEF812F902F2D
:10091000DF91CF911F910F91089582FF14C02E8116
:100920003F818C819D81281739073CF4E881F9814A
:10093000CF0101969983888310838E819F810196D0
:100940009F838E83E3CFE885F985812F0995892BD5
:10095000A1F3DACFFA01AA27283051F1203181F131
:10096000E8946F936E7F6E5F7F4F8F4F9F4FAF4FB7
:10097000B1E03ED0B4E03CD0670F781F891F9A1FCA
:10098000A11D680F791F8A1F911DA11D6A0F711D7E
:10099000811D911DA11D20D009F468943F912AE08A
:1009A000269F11243019305D3193DEF6CF01089572
:1009B000462F4770405D4193B3E00FD0C9F7F6CFA3
:1009C000462F4F70405D4A3318F0495D31FD40526B
:1009D000419302D0A9F7EACFB4E0A6959795879501
:1009E00077956795BA95C9F70097610571050895E0
:1009F0009B01AC010A2E069457954795379527958C
:100A0000BA95C9F7620F731F841F951FA01D089523
:100A10002F923F924F925F926F927F928F929F920E
:100A2000AF92BF92CF92DF92EF92FF920F931F93FC
:100A3000CF93DF93CDB7DEB7CA1BDB0B0FB6F894AD
:100A4000DEBF0FBECDBF09942A88398848885F84ED
:100A50006E847D848C849B84AA84B984C884DF805E
:100A6000EE80FD800C811B81AA81B981CE0FD11D42
:100A70000FB6F894DEBF0FBECDBFED010895F89418
:020A8000FFCFA6
:100A82003101420153016401750186019701A801F8
:100A9200B901CA01DB01EC015061756C204B696D33
:100AA20000253032642F253032642F2564002573EF
:100AB2000048656C6C6F2020202020202020202000
:100AC2002000486F772061726520796F753F202082
:100AD2002020005768617427732075702073686145
:100AE2007774790057686174277320506F7070694A
:100AF2006E673F2000576861742773207468652011
:100B02006D6F76653F0042616E616E61206F72208B
:100B12004170706C65200048454845484548454845
:100B2200454845484548450049206C696B65207435
:100B32007572746C652020200049206C6F766520E8
:100B42004545313039202020200054757271756F6F
:100B52006973652020202020202000444F50452129
:100B62002020202020202020202020004869212031
:0E0B72002020202020202020202020200000F5
:00000001FF
