:100000000C9434000C9451000C9451000C94510049
:100010000C947A010C9409020C9451000C94510038
:100020000C9451000C9451000C9451000C94570204
:100030000C9451000C9451000C9429010C94510023
:100040000C9451000C9451000C9451000C945100EC
:100050000C9451000C9451000C9451000C945100DC
:100060000C9451000C94510011241FBECFEFD8E026
:10007000DEBFCDBF11E0A0E0B1E0EEEFF7E102C0DE
:1000800005900D92AC33B107D9F721E0ACE3B1E0B4
:1000900001C01D92A335B207E1F70E94FE020C9445
:1000A000FD0B0C9400009BB19F709BB99BB1807FAE
:1000B000892B8BB9299A299A29980895CF93C82F0B
:1000C00028980E9453008C2F8295807F0E945300B5
:1000D0008FE39FE10197F1F700C00000CF910895F1
:1000E000811104C080E8860F0C945E0080ECFBCF89
:1000F0008AB1806F8AB984B1836084B98FE59AEE42
:100100000197F1F700C0000080E30E9453008FE1E7
:100110009EE40197F1F700C0000080E30E945300C5
:100120008FED91E00197F1F700C0000080E30E949D
:10013000530080E20E9453008FE39FE10197F1F7A3
:1001400000C0000088E20E945E008FE00C945E0018
:10015000CF93C82F289A0E9453008C2F8295807FBE
:100160000E9453008FE39FE10197F1F700C0000068
:10017000CF910895CF93DF93EC018991811103C052
:10018000DF91CF9108950E94A800F7CF23B130E00E
:10019000082E02C0359527950A94E2F720FD1BC072
:1001A000EFE1FEE43197F1F700C0000021E030E01C
:1001B00002C0220F331F8A95E2F783B190E08223B9
:1001C0009323892BD1F78FE19EE40197F1F700C0CB
:1001D000000081E0089580E0089526B130E0082E07
:1001E00002C0359527950A94E2F720FD21C02FEF34
:1001F00030E792E0215030409040E1F700C000002D
:1002000021E030E002C0220F331F8A95E2F786B169
:1002100090E082239323892BD1F72FEF30E782E000
:10022000215030408040E1F700C0000081E0089597
:1002300080E008955A9A85E38A95F1F700005A986C
:10024000089524983B982C9A439A08953D9A45988E
:1002500008951F920F920FB60F9211248F939F93C0
:1002600080913E01811122C081E080933E01459A38
:1002700080913C0190913D01019690933D018093C6
:100280003C0180913C0190913D01883F910539F4FA
:1002900085B58B7F85BD10923D0110923C019F91E9
:1002A0008F910F900FBE0F901F90189510923E01E6
:1002B0004598DECF84B5826084BDEEE6F0E08081B3
:1002C0008260808387B58A6F87BD85B5846085BD70
:1002D000089587B1897F87B988B1866088B9E8E6D3
:1002E000F0E0808182608083ECE6F0E080818660CF
:1002F000808308951F920F920FB60F9211248F934F
:100300009F9386B1982F927090935201847080933E
:100310004F0180915001811110C0809152018823BA
:1003200021F081E08093510128C080914F01882302
:1003300069F182E08093510110C0809150018130B9
:1003400091F480914F01882311F083E0EBCF8091ED
:10035000520181111BC01092510180913F01909177
:10036000400101970FC080915001823049F5809182
:100370004F0181111FC01092510180913F01909156
:10038000400101969093400180933F01909151016B
:1003900080915001981739F081E08093410180915C
:1003A0005101809350019F918F910F900FBE0F903C
:1003B0001F90189580915201882341F383E0BACFB2
:1003C00080915201811102C082E0ACCF80914F0137
:1003D0008111DCCF81E0AECF529A5398E1E8F0E092
:1003E00080818860808380E495EB9093890080937E
:1003F0008800EFE6F0E0808182608083E8E6F0E04C
:10040000808184608083EDE6F0E080818860808375
:1004100008951F920F920FB60F9211248F939F93FE
:10042000AF93BF93CF93DF93EF93FF9380914C01F2
:10043000811120C010924B0110928500109284000F
:1004400080918100826080938100809181008A7F09
:100450008093810081E080934C01FF91EF91DF91C7
:10046000CF91BF91AF919F918F910F900FBE0F9041
:100470001F901895809181008D7F809381008091DD
:1004800084009091850080934301909344011092E1
:1004900045011092460110924701109248011092B6
:1004A000490110924A0181E080934B01D6CF1F92FF
:1004B0000F920FB60F9211248F93EF93FF93E1E801
:1004C000F0E080818D7F808380E48093430185EB21
:1004D0008093440110924501109246011092470109
:1004E000109248011092490110924A0181E08093D4
:1004F0004B01FF91EF918F910F900FBE0F901F90C6
:10050000189544981092B30008958F929F92AF92DD
:10051000BF92CF92DF92EF92FF92CF93DF934498F6
:10052000609100017091010180910201909103019D
:10053000681B790B072E000C880B990B0E94F107A2
:100540009B01AC0160E070E08FE793E40E944707F5
:100550006B017C01C0910201D091030180914D019A
:1005600090914E016AE070E00E94EC05072E000CAD
:10057000880B990B0E94F107A70196010E947D0844
:100580004B015C01BE01DD0F880B990B0E94F10746
:10059000A70196010E947D089B01AC01C501B40131
:1005A0000E94DA060E94B9076093B300DF91CF91F1
:1005B000FF90EF90DF90CF90BF90AF909F908F9083
:1005C000089544988FEF8093B30008951092B3007C
:1005D000449A2B980895E0EBF0E080818068808356
:1005E000808183608083E1EBF0E0808184608083A0
:1005F00080E88093B300239A3C9A0895CF93DF93C9
:10060000CDB7DEB7A8970FB6F894DEBF0FBECDBF4B
:100610000E9478000E94EC010E9421010E94EB02DE
:100620000E9469010E942601789481E00E945E0088
:1006300064E080E00E94700084E091E00E94BA00D3
:1006400087E08F9392ED9F931F928F931F9282E08A
:100650008F938DE091E09F938F931F928EE18F9304
:100660008E010F5F1F4F1F930F930E94EA0863E0F4
:1006700081E00E947000C8010E94BA002FEF43ED94
:1006800080E3215040408040E1F700C0000081E05D
:100690000E945E0060E080E00E9470008AE191E0CC
:1006A0000E94BA0060E081E00E9470008FE191E05A
:1006B0000E94BA0064E080E00E94700083E291E052
:1006C0000E94BA000FB6F894DEBF0FBECDBFA5E200
:1006D0006A2EA1E07A2E4E019FE1890E911CB0E9AD
:1006E0002B2E332433941AE0412E512C84E00E94A7
:1006F000C600082F83E00E94ED00182F84E690E0EA
:100700000E94980B9C012150310920393140F8F4A6
:10071000909303018093020165E080E00E947000E5
:1007200080910201909103019F938F937F926F922A
:100730001F928AE08F939F928F920E94EA08C401D1
:100740000E94BA000FB6F894DEBF0FBECDBF88EC92
:1007500090E00E94980B9C012150310920393140D2
:10076000F8F4909301018093000165E081E00E941C
:10077000700080910001909101019F938F937F926F
:100780006F921F928AE08F939F928F920E94EA0845
:10079000C4010E94BA000FB6F894DEBF0FBECDBFF1
:1007A00086B1982F927090935201847080934F017C
:1007B00080914F01811111C18091520181110DC1B0
:1007C000109250018091500180935101013011F439
:1007D0000E941A01113009F58FE39CE90197F1F7A6
:1007E00000C0000080914201813009F010C11092D8
:1007F000420164E080E00E94700083E291E00E9488
:10080000BA0064E081E00E94700089E291E00E94F9
:10081000BA0068E081E00E9470008091410181305F
:1008200009F04BC01092410180914201811121C118
:1008300020913F013091400180910201909103018C
:10084000820F931F90930301809302018091020114
:1008500090910301813991400CF4EAC03092030178
:10086000209202011092400110923F0165E080E069
:100870000E94700080910201909103019F938F93D9
:100880007F926F921F929AE09F939F928F920E9405
:10089000EA08C4010E94BA0060910201709103014C
:1008A00084E690E00E949E0B0FB6F894DEBF0FBE68
:1008B000CDBF68E081E00E94700080914B018130E3
:1008C00009F079C0209143013091440140914501E4
:1008D0005091460160914701709148018091490112
:1008E00090914A01EAE0AE2EB12CC12CD12CE12C22
:1008F000F12C00E010E00E940006F4E7AF2E0E9409
:100900005A0630934E0120934D0180914D019091F4
:100910004E014E970CF414C180914D0190914E01FF
:100920006AE0803A9F400CF003C180E00E947000B2
:1009300080914D0190914E0120914D0130914E01D9
:10094000B2010E94EC059F938F93C901B2010E94EE
:10095000EC057F936F938BE291E09F938F931F92AF
:100960004AE04F939F928F920E94EA08C4010E942E
:10097000BA0080914D0190914E0120910201309179
:100980000301B2010E94EC050FB6F894DEBF0FBE62
:10099000CDBF6217730714F40E945A019FEF20E73E
:1009A00042E0915020404040E1F700C0000010922A
:1009B0004B0110924C0180914D0190914E0120917C
:1009C000020130910301B2010E94EC05261737079E
:1009D0000CF4C8C00E94810289CE80914F01811120
:1009E00008C080915201882321F081E0809350015A
:1009F000E9CE80914F01882341F08091520181110D
:100A000004C092E090935001DDCE83E0EFCF80915F
:100A100042018111FECE1093420164E081E00E9408
:100A2000700083E291E00E94BA0064E080E0EBCEC7
:100A30008091020190910301181619063CF081E0A3
:100A400090E090930301809302010CCF809100010C
:100A50009091010120910201309103010497281720
:100A600039070CF4FFCE80910001909101010597A8
:100A7000E8CF80914201813009F01BCF20913F01E6
:100A8000309140018091000190910101820F931FEC
:100A900090930101809300018091000190910101E8
:100AA000813991402CF13092010120920001109285
:100AB000400110923F0165E081E00E94700080914A
:100AC0000001909101019F938F937F926F921F92EB
:100AD0009AE09F939F928F920E94EA08C4010E941D
:100AE000BA00609100017091010188EC90E0DACECB
:100AF0008091000190910101181619063CF081E0E7
:100B000090E09093010180930001D1CF8091020188
:100B10009091030120910001309101010496821708
:100B200093072CF280910201909103010596E9CF81
:100B300080E00E94700084E391E00E94BA002ECF12
:100B400080914D0190914E01805A9F400A9708F084
:100B50002ECF6AE080E00E94700084E391E00E9462
:100B6000BA0025CF80914D0190914E012091020154
:100B700030910301B2010E94EC05261737078CF46F
:100B800080914D0190914E01209100013091010121
:100B9000B2010E94EC05621773071CF40E948502E3
:100BA000A5CD80914D0190914E0120910001309191
:100BB0000101B2010E94EC052617370754F4809119
:100BC0004D0190914E01803A9F401CF40E94E10239
:100BD0008DCD0E94E6028ACD97FB072E16F4009475
:100BE00007D077FD09D00E94B70607FC05D03EF478
:100BF000909581959F4F0895709561957F4F0895C9
:100C0000DF93CF931F930F939A9DF02D219FF00DAB
:100C10008B9DF00D8A9DE02DF10D039FF00D029F3D
:100C2000E00DF11D4E9DE00DF11D5E9DF00D4F9DFF
:100C3000F00D7F936F93BF92AF925F934F93D50167
:100C40000E94CB068B01AC01D7010E94CB06EB01C1
:100C5000E80FF91FD6010E944F062F913F91D60150
:100C60000E94CB06C60FD71FE81FF91FAF91BF9197
:100C70000E944F062F913F910E94CB06C60FD71FAF
:100C8000E81FF91FD6010E94CB06E60FF71F980157
:100C9000BE01CF010F911F91CF91DF9108950E9466
:100CA000CB06460F571FC81FD91F08F43196089569
:100CB000689401C0E8948F929F92CF93DF930E9433
:100CC0006606DF91CF919F908F9008958824992494
:100CD000F401E401B0E49F93AA279A158B049C04C5
:100CE000ED05FE05CF05D007A10798F4AD2FDC2F49
:100CF000CF2FFE2FE92D982C892E982F872F762F16
:100D0000652F542F432F322F2227B85031F7BF9130
:100D100027C01B2EBF91BB27220F331F441F551F17
:100D2000661F771F881F991F881C991CEE1FFF1FC5
:100D3000CC1FDD1FAA1FBB1F8A149B04EC05FD05F9
:100D4000CE05DF05A007B10748F08A189B08EC091B
:100D5000FD09CE09DF09A00BB10B21601A94E1F661
:100D60002EF49401AF01BE01CD01000C0895AA1B21
:100D7000BB1B51E107C0AA1FBB1FA617B70710F086
:100D8000A61BB70B881F991F5A95A9F780959095B8
:100D9000BC01CD010895A29FB001B39FC001A39FE4
:100DA000700D811D1124911DB29F700D811D1124A4
:100DB000911D08955058BB27AA270E94F2060C9453
:100DC00043080E94350838F00E943C0820F039F4AE
:100DD0009F3F19F426F40C9432080EF4E095E7FBDB
:100DE0000C942C08E92F0E94540858F3BA17620794
:100DF00073078407950720F079F4A6F50C9476081C
:100E00000EF4E0950B2EBA2FA02D0B01B901900125
:100E10000C01CA01A0011124FF27591B99F0593F69
:100E200050F4503E68F11A16F040A22F232F342FB1
:100E30004427585FF3CF469537952795A795F040FF
:100E40005395C9F77EF41F16BA0B620B730B840B14
:100E5000BAF09150A1F0FF0FBB1F661F771F881FCC
:100E6000C2F70EC0BA0F621F731F841F48F4879524
:100E700077956795B795F7959E3F08F0B0CF939516
:100E8000880F08F09927EE0F9795879508950E948F
:100E90005B070C9443080E943C0858F00E943508F8
:100EA00040F029F45F3F29F00C942C0851110C9468
:100EB00077080C9432080E94540868F39923B1F320
:100EC000552391F3951B550BBB27AA276217730770
:100ED000840738F09F5F5F4F220F331F441FAA1F04
:100EE000A9F335D00E2E3AF0E0E832D091505040C0
:100EF000E695001CCAF72BD0FE2F29D0660F771F6E
:100F0000881FBB1F261737074807AB07B0E809F053
:100F1000BB0B802DBF01FF2793585F4F3AF09E3FD8
:100F2000510578F00C942C080C9477085F3FE4F39B
:100F3000983ED4F3869577956795B795F7959F5F1B
:100F4000C9F7880F911D9695879597F90895E1E067
:100F5000660F771F881FBB1F621773078407BA07C6
:100F600020F0621B730B840BBA0BEE1F88F7E09521
:100F700008950E94C0076894B1110C9477080895F1
:100F80000E945C0888F09F5798F0B92F9927B751B5
:100F9000B0F0E1F0660F771F881F991F1AF0BA951D
:100FA000C9F714C0B13091F00E947608B1E00895FD
:100FB0000C947608672F782F8827B85F39F0B93FEF
:100FC000CCF3869577956795B395D9F73EF49095D0
:100FD0008095709561957F4F8F4F9F4F0895E8944E
:100FE00009C097FB3EF490958095709561957F4F71
:100FF0008F4F9F4F9923A9F0F92F96E9BB2793951F
:10100000F695879577956795B795F111F8CFFAF42E
:10101000BB0F11F460FF1BC06F5F7F4F8F4F9F4F5F
:1010200016C0882311F096E911C0772321F09EE8BD
:10103000872F762F05C0662371F096E8862F70E023
:1010400060E02AF09A95660F771F881FDAF7880FFD
:101050009695879597F9089597F99F6780E870E0CE
:1010600060E008959FEF80EC089500240A9416161E
:10107000170618060906089500240A941216130686
:10108000140605060895092E0394000C11F4882314
:1010900052F0BB0F40F4BF2B11F460FF04C06F5F30
:1010A0007F4F8F4F9F4F089557FD9058440F551F06
:1010B00059F05F3F71F04795880F97FB991F61F0DA
:1010C0009F3F79F087950895121613061406551F51
:1010D000F2CF4695F1DF08C0161617061806991FBD
:1010E000F1CF86957105610508940895E894BB27B2
:1010F00066277727CB0197F908950E9490080C94F2
:1011000043080E94350838F00E943C0820F09523DF
:1011100011F00C942C080C94320811240C947708CC
:101120000E94540870F3959FC1F3950F50E0551F2E
:10113000629FF001729FBB27F00DB11D639FAA272C
:10114000F00DB11DAA1F649F6627B00DA11D661F7B
:10115000829F2227B00DA11D621F739FB00DA11D9C
:10116000621F839FA00D611D221F749F3327A00D56
:10117000611D231F849F600D211D822F762F6A2FF2
:1011800011249F5750409AF0F1F088234AF0EE0F57
:10119000FF1FBB1F661F771F881F91505040A9F784
:1011A0009E3F510580F00C942C080C9477085F3F0B
:1011B000E4F3983ED4F3869577956795B795F795C0
:1011C000E7959F5FC1F7FE2B880F911D9695879538
:1011D00097F90895AEE0B0E0E0EFF8E00C94D40B9E
:1011E0000D891E898F89988D26E02C831A830983A7
:1011F00097FF02C080E090E801979E838D83AE0147
:10120000455E5F4F698D7A8DCE0101960E941A0965
:101210004D815E8157FD0AC02F81388542175307E3
:101220000CF49A01020F131FF80110822E96E4E0CD
:101230000C94F00BABE0B0E0E0E2F9E00C94C60BEC
:101240007C013B018A01FC0117821682838181FFA8
:10125000C8C1CE0101965C01F7019381F30193FDB2
:10126000859193FF81913F01882309F453C1853211
:1012700039F493FD859193FF81913F01853229F4E3
:10128000B70190E00E940A0BE7CF912C212C312C62
:10129000FFE1F31538F08B3211F190F4803209F14F
:1012A000833229F137FC3CC020ED280F2A3050F55D
:1012B00036FE20C08AE0989E200D1124922E06C092
:1012C0008D3291F0803371F7689430F8F30193FD1B
:1012D000859193FF81913F018111DACF21C06894FC
:1012E00031F8689432F8F2CF689433F8EFCF68940D
:1012F00034F8ECCFEAE02E9E200D1124222E6894C3
:1013000035F8E4CF8E3229F436FC04C1689436F8FF
:10131000DDCF8C3619F4689437F8D8CF8836B1F21F
:10132000982F9F7D95549330E0F08336A1F1833759
:10133000C1F1833509F063C02801F2E04F0E511C62
:10134000F801C080D180692D70E036FC02C06FEFDB
:101350007FEFC6010E94F40A4C01689437F88201BD
:101360000AC00C5F1F4FFFE3F98388248394912CFC
:101370006501E89437F833FE2DC0522C8114910496
:1013800071F5552009F468CFB70180E290E00E9422
:101390000A0B5A94F6CFF801808189830E5F1F4FA4
:1013A000E4CF2801F2E04F0E511CF801C080D1803B
:1013B000692D70E036FC02C06FEF7FEFC6010E941E
:1013C000FF0A4C018201D5CFB70180E290E00E9474
:1013D0000A0B2A942814190409F0B0F7CECFF601AD
:1013E00037FC859137FE81916F01B70190E00E9433
:1013F0000A0B51105A94F1E08F1A9108BFCF84362E
:1014000019F0893609F077C0F80137FE6BC06081AA
:101410007181828193810C5F1F4FF32DFF763F2EE8
:1014200097FF09C090958095709561957F4F8F4F7C
:101430009F4F689437F82AE030E0A5010E943A0BEC
:10144000C82ECA188C2C432C36FE0CC0E89440F8E9
:10145000C91440F434FE05C032FC03C0F32DFE7EF7
:101460004F2E892C44FE95C0FE01EC0DF11D8081AC
:10147000803309F087C0242D297E422E842D887068
:10148000582E43FC95C040FE8FC09C2C821418F44B
:101490002C0C922C981844FE91C0B70180E390E088
:1014A0000E940A0B42FE09C088E790E041FE02C09C
:1014B00088E590E0B7010E940A0BC91408F48AC0BD
:1014C000CA94D12C9FEFC91AD90ACA0CDB1CF601A9
:1014D00082916F01B70190E00E940A0BAC14BD0429
:1014E000B1F74FCF60817181072E000C880B990BEB
:1014F0000E5F1F4F92CFD32CE894D4F82AE030E04F
:10150000853739F1232D297FD22E8F3601F148F40A
:101510008835A9F0F701868197812B96E2E10C943A
:10152000E20B803749F08837A9F7D4FE02C06894EF
:10153000D2F820E130E00DC06894D4F8F6CF34FE44
:1015400003C0822F8660D82E20E132E002C028E05E
:1015500030E0F801D7FE0FC06081718182819381F4
:101560000C5F1F4FA5010E943A0BC82ECA183D2CD4
:10157000E89437F867CF6081718190E080E00E5F7A
:101580001F4FF0CF42FC02C0839478CF83948394A2
:1015900075CF842D867809F471CFF6CFB70180E23C
:1015A00090E00E940A0B83948214C0F3512C73CFF5
:1015B000522C5818821408F46ECFF8CF842D8678F8
:1015C00009F47BCF8BE241FE80E247FC8DE2B7015C
:1015D00090E071CFB70180E390E00E940A0B9A94EB
:1015E0006CCF8FEF9FEF99CFFC0105906150704059
:1015F0000110D8F7809590958E0F9F1F0895FC01DC
:101600006150704001900110D8F7809590958E0F31
:101610009F1F08950F931F93CF93DF93182F092FC8
:10162000EB018B8181FD09C01FEF0FEF812F902F00
:10163000DF91CF911F910F91089582FF14C02E81E9
:101640003F818C819D81281739073CF4E881F9811D
:10165000CF0101969983888310838E819F810196A3
:101660009F838E83E3CFE885F985812F0995892BA8
:10167000A1F3DACFFA01AA27283051F1203181F104
:10168000E8946F936E7F6E5F7F4F8F4F9F4FAF4F8A
:10169000B1E03ED0B4E03CD0670F781F891F9A1F9D
:1016A000A11D680F791F8A1F911DA11D6A0F711D51
:1016B000811D911DA11D20D009F468943F912AE05D
:1016C000269F11243019305D3193DEF6CF01089545
:1016D000462F4770405D4193B3E00FD0C9F7F6CF76
:1016E000462F4F70405D4A3318F0495D31FD40523E
:1016F000419302D0A9F7EACFB4E0A69597958795D4
:1017000077956795BA95C9F70097610571050895B2
:101710009B01AC010A2E069457954795379527955E
:10172000BA95C9F7620F731F841F951FA01D0895F6
:10173000A8E1B0E042E050E00C94A60B0196272F00
:101740000E94B50B0C94B40BDC01CB01FC01F999A0
:10175000FECF06C0F2BDE1BDF89A319600B40D92FD
:1017600041505040B8F70895262FF999FECF92BD09
:1017700081BDF89A019700B4021639F01FBA20BD56
:101780000FB6F894FA9AF99A0FBE08952F923F92E5
:101790004F925F926F927F928F929F92AF92BF9281
:1017A000CF92DF92EF92FF920F931F93CF93DF932D
:1017B000CDB7DEB7CA1BDB0B0FB6F894DEBF0FBE8A
:1017C000CDBF09942A88398848885F846E847D84D7
:1017D0008C849B84AA84B984C884DF80EE80FD80D9
:1017E0000C811B81AA81B981CE0FD11D0FB6F8944F
:0E17F000DEBF0FBECDBFED010895F894FFCF10
:1017FE00280014005061756C204B696D0025303245
:10180E00642F253032642F2564004E6561720046C8
:10181E006172003D00253364002000202533642EC4
:0C182E00253164003E3430302E300000C4
:00000001FF
